:020000041000EA
:10000000002008205D0100101301001015010010F0
:100010001101001011010010110100101101001058
:100020001101001011010010110100101701001042
:100030001101001011010010190100101B01001026
:100040001D0100101D0100101D0100101D010010F8
:100050001D0100101D0100101D0100101D010010E8
:100060001D0100101D0100101D0100101D010010D8
:100070001D0100101D0100101D0100101D010010C8
:100080001D0100101D0100101D0100101D010010B8
:100090001D0100101D0100101D0100101D010010A8
:1000A0001D0100101D0100101D0100101D01001098
:1000B0001D0100101D0100101D0100101D01001088
:1000C0001D0100101D0100101D0100101D01001078
:1000D0001D0100101D0100101D0100101D01001068
:1000E0001D0100101D0100101D0100101D01001058
:1000F0001D0100101D0100101D0100101D01001048
:100100001D0100101D0100101D0100101D01001037
:1001100000BE00BE00BE00BE00BE00BEEFF3058004
:10012000103800BEF2EB8871F8D0001018D1001022
:10013000A801001090A31AE7D3DEFFFF42012110AF
:10014000FF010000D0F90000793512AB4FF000003C
:100150002049086006C881F3088810474FF05040D6
:10016000006810B14FF00000F2E70FA40ECC002998
:1001700002D000F015F8F9E71749184A002000E00E
:1001800001C19142FCD1002080F30A8814498847BC
:10019000144988471449884700BEFDE701C901C2D8
:1001A0009A42FBD3704700BF18D100101001002005
:1001B000002B002008FB0010000008200000082091
:1001C00008FB0010001008200010082000000000AC
:1001D0007047000008ED00E0002B0020746501204E
:1001E0009D540010612700105F540010F8B500BF47
:1001F0000348044B834202D0034B03B118477047B6
:10020000002B0020002B002000000000064B0749B7
:10021000C91A891048BF0131491003D0044B0BB1F2
:1002200001481847704700BF002B0020002B00201A
:100230000000000010B5064C237843B9FFF7D8FF43
:10024000044B13B1044800E000BF0123237010BD2C
:10025000882C00200000000078AF001008B5044B87
:100260001BB10449044800E000BFBDE80840CDE7E9
:10027000000000008C2C002078AF0010F0B583B097
:1002800005460C4648F2E05200210AF09FFA00278A
:100290005AE0013121293DDC02EB021304EB430358
:1002A00013F801E0BEF1000FF3D002EB420301337B
:1002B000DB1B07EE903AB8EEE77A01EB410301331E
:1002C0009B1B07EE903AF8EEE77A67EE076A27EE97
:1002D000A76A67EE266A67EE266A27EE866A27EE29
:1002E000866A76EE866AB7EE006A76EE866A06EE73
:1002F00010EAB8EEC66AF2EE044A26EE246AC6EEAA
:10030000264A27EE247A35EE075A67EEA47A75EE70
:10031000A75ABEE701320D2A01DC0021BAE700EB43
:10032000CC0080ED005AC0ED015A0136652E0ADC82
:100330004FF44C7000FB0750B446DFED075AB0EEA7
:10034000655A0022E7E70137292F01DC0026EDE797
:10035000284603B0F0BD00BF00000000012800D017
:1003600070474FF6FF739942FAD110B522492348DE
:10037000FFF784FF0024224840F8044B45F2D012D6
:1003800021460AF023FA214602E00D2918D0013156
:100390001B4B4FF4BB6202FB0132012353605361DC
:1003A0004FF4BB6000FB01F02C2202FB0300144A57
:1003B0000244012050605061212BE6D00344EFE756
:1003C00043F2381200210F480AF000FA002303EB31
:1003D000C3020D4901EB82024FF07E51916040F261
:1003E0005D12934201D00133F1E74FF4BA7200215C
:1003F00006480AF0EBF910BDF8B00010E048002004
:10040000C4D20020982401209C240120BC62012039
:1004100038B50521032002F015FA0521022002F06B
:1004200011FA0123032243EC4420022243EC44202E
:1004300000240FE00325012343EC40500A20002153
:1004400003F022F9002343EC40500A20002103F07E
:100450001BF90134132CEDDD0225012343EC405040
:10046000032443EC40400520002103F00DF9214610
:10047000204602F0E7F92146284602F0E3F938BDAC
:1004800010B5044C204608F037F90349204608F01F
:10049000A9F910BD98220020801A060030B587B057
:1004A0008DF814008DF8151003F002FA10F57A7427
:1004B00041F10005002C75F100030BDBCDE902458D
:1004C00000230093022305AA5321054808F0B6F93A
:1004D00007B030BD4FF0FF346FF00045EEE700BFCE
:1004E0009822002030B587B08DF814008DF81510D3
:1004F00003F0DEF910F57A7441F10005002C75F176
:1005000000030BDBCDE9024500230093022305AA7B
:100510005021054808F092F907B030BD4FF0FF3484
:100520006FF00045EEE700BF982200202DE9F0476C
:1005300086B007468A461646A8238DF8173003F082
:10054000B7F910F57A7441F10005002C75F100033C
:1005500040DBCDE902450023009301230DF1170292
:100560001921294808F06AF910F1020F37D003F079
:100570009FF910F57A7841F10009B8F1000F79F18F
:10058000000334DBCDE9028900230093062304AA8B
:1005900019211D4808F06FF910F1020F2CD09DF8B9
:1005A00011209DF8103043EA02235B42AAF8003084
:1005B0009DF813209DF8123043EA02235B423B80F2
:1005C0009DF815209DF8143043EA0223338006B0CD
:1005D000BDE8F0874FF0FF346FF00045B9E70B48F6
:1005E00005F07AF8FFF714FFFFF74AFFEFE74FF047
:1005F000FF386FF00049C5E7054805F06DF8FFF7D3
:1006000007FFFFF73DFFE2E79822002078AF0010D8
:100610008CAF00102DE9F04387B0C521FE20FFF715
:100620003DFF0321FD20FFF739FFC521FE20FFF725
:1006300059FF0321FD20FFF755FF80210120FFF71F
:100640002DFF80210120FFF74DFF01210020FFF742
:1006500025FF01210020FFF745FFC521FE20FFF700
:100660001DFF0021FD20FFF719FFC521FE20FFF728
:1006700039FF0021FD20FFF735FF00250B2D0CDC95
:100680006C00E4B2FF212046FFF708FF601CFF2149
:10069000C0B2FFF703FF0135F0E700240B2C07DCA5
:1006A0006000FF2100F0FE00FFF71CFF0134F5E7BA
:1006B0000F210120FFF716FF3F210320FFF712FF54
:1006C0007F210520FFF70EFF7F210720FFF70AFF9C
:1006D000FF210920FFF706FFFF210B20FFF702FF94
:1006E000FF210D20FFF7FEFEFF210F20FFF7FAFE8E
:1006F0007F211120FFF7F6FE7F211320FFF7F2FE86
:100700003F211520FFF7EEFE0F211720FFF7EAFE2D
:10071000C521FE20FFF7C2FE0121FD20FFF7BEFE2E
:10072000C521FE20FFF7DEFE0121FD20FFF7DAFEE6
:1007300045F22073ADF8143003F0BAF810F57A786A
:1007400041F10009B8F1000F79F1000326DBCDE992
:10075000028900230093022305AA1921144808F0F6
:100760006DF823238DF8143020238DF8153003F015
:100770009FF810F57A7641F10007002E77F100031B
:1007800011DBCDE9026700230093022305AA19219A
:10079000074808F053F807B0BDE8F0834FF0FF3882
:1007A0006FF00049D3E74FF0FF366FF00047E8E7FE
:1007B00098220020F0B585B003F07AF842F2107369
:1007C000C6184FF0000341EB0307002E77F100033A
:1007D00028DBCDE9026700230093C123214A53217E
:1007E000214808F02BF810F1020F20D003F060F838
:1007F00042F21073C4184FF0000341EB0305002CC4
:1008000075F100031EDBCDE9024500230093C123EF
:10081000164A5021144808F011F810F1020F16D0B2
:1008200005B0F0BD4FF0FF366FF00047D1E710483C
:1008300004F052FF012002F03DFFFFF7E9FDFFF752
:100840001FFED3E74FF0FF346FF00045DBE70848A9
:1008500004F042FF012002F02DFFFFF7D9FDFFF762
:100860000FFEDDE7EC2C002098220020B02D0020A8
:100870009CAF00100068B0FA80F040097047006833
:10088000022814BF0020012070470068012814BF0F
:10089000002001207047000030B4002467E0002AE7
:1008A00010DD364900258D540CE003EB031234496A
:1008B00001EBC20252F82420FF2A23DDFF3A31491E
:1008C00000258D54002B51D0013B021D4FF4BB611C
:1008D00001FB03222C2101FB04F151580129E4D032
:1008E000022915D00029EDD103EB0312244901EBB5
:1008F000C20252F82420FF2AD1DDFF3A2149002507
:100900008D54DFE7002ADDDD1C4900258D54D9E731
:1009100003EB03111A4D05EBC10151F82410FF2917
:1009200011DD2C2505FB0422D26895000135FE2D32
:1009300007D89200D2B20132D2B2FF39114D6A54B7
:10094000C0E7FF22F9E70029BCDD2C2505FB0422C6
:10095000D26895000135FE2D06D89200D2B2013240
:10096000D2B2064D6A54ADE7FF22FAE70134212CDA
:1009700001D80E23A6E730BC704700BFEC2C002046
:10098000D4B20010B02D00204B6A0C2B09DD0430CE
:100990004FF4BB6202FB0303886A2C2202FB003087
:1009A000704704304FF4BB6203FB022210448B6A91
:1009B0002C2202FB030070474B6A002B0ADD013B2F
:1009C00004304FF4BB6202FB0303886A2C2202FB53
:1009D0000030704704304FF4BB6202FB0303886AA7
:1009E0002C2202FB003070478B6A002B0ADD4A6A1A
:1009F00004304FF4BB6101FB0200013B2C2202FBDF
:100A0000030070474A6A04304FF4BB6101FB0200E7
:100A10002C2202FB030070478A6A202A09DD4B6AF8
:100A200004304FF4BB6101FB03032C2000FB0230B8
:100A300070474B6A04304FF4BB6101FB03002C2369
:100A400002FB03331844704707EE101A07EE902A92
:100A5000B5EEC07AF1EE10FA09D4DFED1B6AB4EE00
:100A6000E67AF1EE10FA04DDB0EE667A01E09FED71
:100A7000177A80ED057ABBFE477ABDEEC77A17EE8E
:100A8000102A80ED077AF5EEC07AF1EE10FA09D45B
:100A90009FED0F7AF4EEC77AF1EE10FA04DDF0EE76
:100AA000477A01E0DFED097AC0ED067AFBFE677A4E
:100AB000FDEEE77A17EE903AC0ED087AC3EBC30378
:100AC00002EB43030360704797FF5F4100000000A3
:100AD000E6FF074240697047806970472DE9F0479B
:100AE00088B004468846FFF7F5FF06462046FFF724
:100AF000F3FF0546D4F80490D4F808A030460AF075
:100B000053F906460F462469CDF8188050460AF07E
:100B10004BF9CDE9040148460AF046F9CDE9020156
:100B200028460AF041F9CDE9000132463B4621460C
:100B3000024804F0FFFD08B0BDE8F087B8AF001030
:100B4000F0B52DED028B89B005460C460846FFF73F
:100B5000C1FF07EE900AF0EE088A27EEA88A204629
:100B6000FFF7BAFF05EE900A65EEA85AFDEEC87AC7
:100B700017EE903AFDEEE57A17EE902A282B75DCF9
:100B80005E1C642A74DC571C07EE903AF8EEE77A94
:100B900078EE677A07EE102AB8EEC77A75EEC75A74
:100BA000F7EE006A36EEE75A76EEE56A4FF44C7CD3
:100BB000304C0CFB034303EBC20103C90DF1200EC3
:100BC0000EE903000CFB064404AE04EBC20292E8FB
:100BD000030086E8030002AA03EBC70393E80300BF
:100BE00082E803006B4604EBC70494E8030083E843
:100BF000030025EE267A9DED066A27EE066A67EE6B
:100C0000A66ADDED044A66EEA44A36EE246A25EEB5
:100C1000855ADDED024A65EE244A36EE246A67EE17
:100C2000A57ADDED005A67EEA55A36EE256ADDEDB0
:100C3000075A27EE257ADDED055A66EEA56A37EEEE
:100C4000267ADDED036A25EE265A37EE057ADDEDCC
:100C5000016A67EEA67A77EE277A85ED006AC5ED20
:100C6000017A284609B0BDEC028BF0BD1E4688E72C
:100C7000174689E7E0480020007F704790F8200081
:100C80007047000070B505460E46FFF7F5FF0446B5
:100C90002846FFF7F3FF0D2C15D8212813DC04EBB1
:100CA000041406EB4404235C6BB195ED017ADFED8F
:100CB000066A27EE267A85ED017AD5ED027A67EE8F
:100CC000A67AC5ED027A70BD52B87E3F2DE9F84F85
:100CD0000746061D00F5A34808F154080EE02C3421
:100CE000AC4209D00023E3602046FFF7C8FD00288E
:100CF000F5D001232360F2E706F5BB66464503D035
:100D0000344606F5BB65EBE707F50842843207F584
:100D10000F46F8361346B34203D0002143F8041BB4
:100D2000F9E707F5A344543407F5034909F10C0921
:100D3000204648450AD050F8245B07F50843843321
:100D400053F82510013143F82510F2E70023B24291
:100D500004D011680B4442F8043BF8E74C4532D00C
:100D6000226807F50845843555F82230013B45F8DF
:100D700022302046FFF780FF07F104084FF4BB6ADA
:100D80000AFB008B2046FFF779FF2C2606FB00B0FC
:100D9000C3680133C3602046FFF76EFF0AFB00887B
:100DA0002046FFF76BFF06FB00F6022348F80630EB
:100DB000236855F82320216907F503430C3343F8D2
:100DC00022102434CAE7BDE8F88F000000000000BC
:100DD0002DE9F04F2DED068B8DB0804600F5A34B2D
:100DE0000BF1540B00F503430C33079329E25946EA
:100DF0000AA8FFF7A5FEDFED925A9DED0A7A27EECD
:100E0000257A9FED906A27EE067ADBED016A36EED1
:100E1000877A8BED017ADDED0B7A67EEA57A67EEC6
:100E2000867A9BED027A77EE277ACBED027A14E28E
:100E3000854BB3F9003007EE103AB8EEC77ADFED14
:100E4000835A27EE257A9FED7F6A27EE067ADBED3F
:100E5000026A36EE877A8BED027A7D4BB3F9003069
:100E600007EE903AF8EEE77A67EEA57A67EE867AB3
:100E70009BED017A77EE277ACBED017AEDE11AEE60
:100E8000100A09F091FF02460B4669A1D1E9000161
:100E900003F082F804460D4619EE900A09F084FF2B
:100EA00002460B462046294603F0B0F803F0FCF852
:100EB000099022E21AEE900A09F076FF02460B46EC
:100EC0005BA1D1E9000103F067F804460D4619EE75
:100ED000100A09F069FF02460B462046294603F036
:100EE00095F803F0E1F80A9033E20AAB3CE2DFED5B
:100EF0005A8A29EE088A38EE2A8AB5EEC08AF1EEBF
:100F000010FA09D4DFED537AB4EEE78AF1EE10FA65
:100F100004DDB0EE678A01E09FED4F8AFBFE687A40
:100F2000FCEEE77ACDED017A9DF80450FBFE487A9D
:100F3000FCEEE77ACDED017A9DF804904C462E4602
:100F40009EE0F5EEC09AF1EE10FA40F1D380304603
:100F500003F0B8F838A3D3E9002303F009F80646F4
:100F60000F461AEE100A09F01FFF02460B463046E4
:100F7000394603F011F8029001F10043039319EE92
:100F8000900A09F011FF02460B46DDE9020103F069
:100F90003DF803F089F80990ACE0B5EEC09AF1EEA7
:100FA00010FA40F1D080204603F08CF822A3D3E958
:100FB000002302F0DDFF06460F461AEE900A09F004
:100FC000F3FE02460B463046394602F0E5FF049038
:100FD00001F10043059319EE100A09F0E5FE0246FF
:100FE0000B46DDE9040103F011F803F05DF80A9007
:100FF000A9E09FED197AAEE0DFED177AB5E00AAB14
:10100000BCE0DFED158A29EE088A38EE2A8AB5EEB3
:10101000C08AF1EE10FA21D4DFED0E7AB4EEE78A41
:10102000F1EE10FA1CDDB0EE678A19E0AFF3008034
:10103000FCA9F1D24D62503FD7A3703D0AD7EF3FD4
:10104000000070428988883C8464012076BE9F3D00
:1010500082640120FAFE0742000000001FED028AB0
:10106000FBFE687AFCEEE77ACDED017A9DF804602C
:10107000FBFE487AFCEEE77ACDED017A9DF804405C
:1010800008F104034FF4BB6000FB06332C2000FB87
:101090000430FFF7EFFB002800F08780002309935E
:1010A0000A93F5EEC09AF1EE10FA7FF74AAF304698
:1010B00003F008F8DFA3D3E9002302F06DFF064632
:1010C0000F461AEE100A09F06FFE02460B46304634
:1010D000394602F061FF06460F4619EE900A09F004
:1010E00063FE02460B463046394602F08FFF02F09F
:1010F000DBFF0990B5EEC09AF1EE10FA7FF74DAF25
:10110000204602F0DFFFCBA3D3E9002302F044FF27
:1011100006460F461AEE900A09F046FE02460B46B6
:101120003046394602F038FF06460F4619EE100ADF
:1011300009F03AFE02460B463046394602F066FF99
:1011400002F0B2FF0A909DED097AB5EEC07AF1EE99
:1011500010FA3FF54EAF8DED097ADDED0A7AF5EE26
:10116000C07AF1EE10FA3FF547AFCDED0A7AB4EE52
:10117000E77AF1EE10FA3FF742AF09AB93ED008A40
:1011800069EE888A78EE8A8AF5EEC08AF1EE10FA66
:101190003FF537AFDFEDA07AF4EEE78AF1EE10FA13
:1011A0007FF731AFF0EE678A2DE7F5EEC09AF1EEEA
:1011B00010FA40F3F08008F104034FF4BB600AFB1F
:1011C000000003442C20069A00FB0230FFF752FB7C
:1011D00010B1924BCBF80430B5EEC09AF1EE10FA94
:1011E00040F3EE8008F104004FF4BB6303FB0A00F8
:1011F0002C23069A02FB03331844FFF73BFB10B184
:10120000864BCBF8083018EE102A18EE901A584684
:10121000FFF71AFC824B1B68022B00F0E580584652
:10122000FFF72AFDA84202D00023CBF8043058462D
:10123000FFF724FD484502D00023CBF808300BF11E
:10124000240B079B9B4500F0D480754B1B68022B39
:101250003FF4CDAD012B3FF4EBAD5846FFF73AFC20
:101260000AEE100A5846FFF737FC0AEE900A584675
:10127000FFF702FD82465846FFF700FD0690DBEDC2
:10128000019ADFED687A29EEA77A37EE0A7A9BEDAC
:10129000029A29EE278A38EE2A8ACDED097ACDED19
:1012A0000A7AF2EE0C7AB4EEE77AF1EE10FA04DA8A
:1012B000B5EEC07AF1EE10FA1FD5F5EEC09AF1EE58
:1012C00010FA7FF7DCAD1AEE100A09F06DFD024648
:1012D0000B464DA1D1E9000102F05EFE04460D4629
:1012E00019EE900A09F060FD02460B462046294699
:1012F00002F08CFE02F0D8FE0990DFED4B7AB4EEDE
:10130000E78AF1EE10FA04DAB5EEC08AF1EE10FACF
:101310001FD5B5EEC09AF1EE10FA7FF7CBAD1AEEFD
:10132000900A09F041FD02460B4639A1D1E90001BE
:1013300002F032FE04460D4619EE100A09F034FDA3
:1013400002460B462046294602F060FE02F0ACFE43
:101350000A909DED097ADDED0A7AB4EEE77AF1EEB6
:1013600010FA3FF7C2AD09AB93ED008A69EE888AA7
:1013700078EE8A8AF5EEC08AF1EE10FA3FF5B7AD45
:10138000DFED257AF4EEE78AF1EE10FA7FF7B1ADE2
:10139000F0EE678AADE50AF1FF3008F104034FF47F
:1013A000BB6202FB00332C20069A00FB0230FFF7E1
:1013B00061FA00283FF410AF1C4BCBF804300BE768
:1013C00008F104004FF4BB6303FB0A0A069B581E96
:1013D0002C2303FB00A0FFF74DFA00283FF413AFC6
:1013E000124BCBF808300EE711495846FFF74AFC7C
:1013F00015E74046FFF76AFC0DB0BDEC068BBDE873
:10140000F08F00BFAFF30080736891ED7CFF2B403D
:101410001D5A643BDFFF4040E7FB5F410AD723BC16
:10142000F02100208988883C000008420AD7233C2C
:10143000F8B000107B14AE47E17A743F30B401F588
:101440000841843111F82250013251F822305B1BDF
:10145000DBB20380458030BC704700000000000014
:101460002DE9F8432DED068B06460C461546084639
:10147000FFF730FB09EE900A2846FFF72BFB0AEE38
:10148000900A79EEEAAA2046FFF726FB09EE100A39
:101490002846FFF721FB08EE100A39EE488A6AEE6B
:1014A000AA8A68EE087A78EEA78A94ED03AAD5EDA9
:1014B000037A6AEE277AB5EE007A67EE877AF4EE61
:1014C000E78AF1EE10FA80F23081F5EE408AF1EE13
:1014D00010FA3FD1F1EE0C7AF4EEE79AF1EE10FA41
:1014E00040F327811AEE100A09F05EFCB2A3D3E99B
:1014F000002302F08BFD8046894619EE900A09F020
:1015000053FC42464B4602F047FD02F0CDFD074634
:10151000F3EE017AB4EEE79AF1EE10FA40F320818F
:101520001AEE100A09F040FCA3A3D3E9002302F04D
:101530006DFD8046894619EE100A09F035FC4246D9
:101540004B4602F029FD02F0AFFD02463946204627
:10155000FFF77AFA18EE900A09F036FC09EE100A45
:10156000D4ED037A77EEC97A17EE900A09F01CFCE5
:101570000022934B02F024FD8046894619EE100AA2
:1015800009F012FC02460B464046494602F03EFD79
:1015900002F08AFD07EE900A6AEEA78A28EE278AF3
:1015A0002046FFF797FA0AEE100A3AEE28AA2046DC
:1015B000FFF792FA0AEE900A7AEE88AA2846FFF719
:1015C00089FA09EE100A39EE689A2846FFF784FA7C
:1015D00009EE900A79EEC89A606809F0E5FB74A3F9
:1015E000D3E9002302F0ECFC02F05EFD6060A0682D
:1015F00009F0DAFB6EA3D3E9002302F0E1FC02F06C
:1016000053FDA060686809F0CFFB69A3D3E900230C
:1016100002F0D6FC02F048FD6860A86809F0C4FB3F
:1016200063A3D3E9002302F0CBFC02F03DFDA860E8
:10163000FBFE4A7AFCEEE77A331D4FF4BB6017EEEF
:10164000902A00FB0233FBFE6A7AFCEEE77A2C203C
:1016500017EE902A00FB0230FFF70CF9B0B9FBFE41
:10166000497AFCEEE77A331D4FF4BB6017EE902AFF
:1016700000FB0233FBFE697AFCEEE77A2C2017EEC2
:10168000902A00FB0230FFF7F5F8F8B12046FFF78B
:1016900021FA0AEE100A78EEA88A3AEE28AA204625
:1016A000FFF71AFA0AEE900A38EE088A7AEE88AA4C
:1016B0002846FFF70FFA09EE100A39EE689A284615
:1016C000FFF70AFA09EE900A79EEC89AFBFE4A7A09
:1016D000FCEEE77A331D4FF4BB6017EE902A00FB57
:1016E0000233FBFE6A7AFCEEE77A2C2017EE902A92
:1016F00000FB0230FFF7BEF8002848D0FBFE497A15
:10170000FCEEE77A331D4FF4BB6017EE902A00FB26
:101710000233FBFE697AFCEEE77A2C2017EE902A62
:1017200000FB0230FFF7A6F8C8B3BDEC068BBDE89E
:10173000F8831AEE100A09F037FB1FA3D3E9002340
:1017400002F064FC8046894619EE900A09F02CFBF1
:1017500042464B4602F00CFC02F0A6FC0746D7E6D8
:101760001AEE100A09F020FB13A3D3E9002302F0BC
:101770004DFC8046894619EE100A09F015FB4246D9
:101780004B4602F0F5FB02F08FFC0246DEE61AEE55
:10179000902A1AEE101A2046FFF756F9AEE719EE16
:1017A000902A19EE101A2846FFF74EF9BDE700BF40
:1017B0002B8716D9CEF7EF3F8FC2F5285C8FF63F07
:1017C0000000E03F2DE9F04F83B007464FF0000BDB
:1017D0005BE0434632464946334803F0ABFFBDF871
:1017E0000620BDF80410314803F0A4FF3049284614
:1017F000FFF774F9642001F05DFF0134BDF8063095
:10180000BDF804201344A34210DDB4F5AF7FE0DA45
:1018100007F5A342543204EBC40302EB8302954262
:10182000EBD029463846FFF71BFEE6E7013628468F
:10183000FFF724FA0130B0420FDBC6EBC60809EB14
:1018400048084246394601A8FFF7F8FDBDF80430C4
:10185000002BEBD0BDF80640D0E709F1010928467E
:10186000FFF70AFA0130484504DB2846FFF706FA7D
:10187000461EDCE72435554505D02846FFF7FCF920
:1018800000F1FF39EBE70BF1010BBBF1040F07DCB3
:1018900007F5A345543507F5034A0AF10C0AEAE7B0
:1018A00003B0BDE8F08F00BFF0AF00102CB0001007
:1018B0005CB0001010B50446FFF78AFA2046FFF727
:1018C00081FF10BD2DE9F04F83B007460191002341
:1018D0000093A2E077EEA77AF7EE085A27EE257A72
:1018E00077EEC77A26EE276A07EE103AB8EEC77A87
:1018F000C6EE075A76EEA56AC4ED016AD6ED046A13
:10190000F8EEE66A66EEA76A86EE876AD6ED016AA9
:1019100076EEC66AC6ED016AD0ED046AF8EEE66AB4
:1019200066EEA76A86EE876AD4ED026A76EE866A6C
:10193000C4ED026AD5ED046AF8EEE66A66EEA77AAF
:10194000C7EE876AD5ED027A77EEE67AC5ED027AC0
:101950002C344C4555D02368022BF9D1214638460A
:10196000FFF712F8064621463846FFF755F80546B8
:1019700021463846FFF720F8804621463846FFF7D3
:1019800033F8D4ED016AD8F8103007EE903AB8EE8B
:10199000E76A66EEC67AD6ED015A96ED047AB8EE9D
:1019A000C77A27EE257A77EE877AD4ED025A90ED42
:1019B000047AB8EEC77A27EE257A77EEC77AD5EDA6
:1019C000025A95ED047AB8EEC77A27EE257A77EEBB
:1019D000877A32691344026913442A69D318B7D04D
:1019E00094ED037AB8EE477ADFED135A37EE657A55
:1019F000B5EEC07AF1EE10FA3FF76CAF9FED0F7ABB
:101A000068E70AF5BB6ADA4503D054460AF5BB69B4
:101A10009FE7009B0133DBB20093009B019A934246
:101A200006D207F1040A07F5A34B0BF1540BEAE7C2
:101A300003B0BDE8F08F00BF5555693F00000000BE
:101A40002DE9F04F2DED048B87B0824604300490D1
:101A50000AF5A34303F1540405940FE000225A60F1
:101A60009A605A619A612C338B4205D01A68022A17
:101A7000F4D101221A60F1E700F5BB60A04203D067
:101A8000034600F5BB61EFE70AF5A34B0BF1540BDE
:101A90000AF503430C33039301E00BF1240B039B82
:101AA0009B4500F060815846FFF7E6F8054658462A
:101AB000FFF712F809EE900A5846FFF7DFF807EE35
:101AC000900AF8EEE77A79EEE77AB6EE007AF4EE6D
:101AD000C77AF1EE10FA01DC441EE0B20AF1040408
:101AE0004FF4BB6303FB05442C2303FB0044214656
:101AF0005046FEF749FF814621465046FEF78CFFCF
:101B0000054601465046FEF73FFF80465846FEF721
:101B1000E1FF08EE100AD4ED097AF8EEE77A38EE24
:101B2000678AF7EE008A38EEC89A19EE900A09F033
:101B30003BF906460F46A06A02F0C4FA0022AB4BFE
:101B400002F016FA02460B463046394602F024FAF5
:101B500002F0AAFA07EE900A78EEE78A29EE286AE0
:101B600068EE288A29EE279A28EE278A9BED017ACB
:101B700067EE066A94ED017A37EE267A84ED017AF3
:101B8000D4ED057A77EE867AC4ED057ADBED017A3D
:101B900027EEA87AD9ED017A77EE877AC9ED017A36
:101BA000D9ED057A77EEA88AC9ED058ADBED017AD1
:101BB00027EE897AD5ED017A77EE877AC5ED017A3D
:101BC000D5ED057A37EE899A85ED059ADBED017A38
:101BD00027EE887AD8ED017A77EE877AC8ED017A18
:101BE000D8ED057A37EE888A88ED058A5846FEF7E3
:101BF00071FF08EE100A5846FFF73EF8054607EE5B
:101C0000900AF8EEE77A78EE677AB6EE007AF4EEAC
:101C1000C77AF1EE10FA01DC451EEDB25846FFF727
:101C20002DF80AF104034FF4BB69029309FB053553
:101C30004FF02C0808FB005421465046FEF7A4FE46
:101C4000074621465046FEF7E7FE05460146504648
:101C5000FEF79AFE064618EE100A09F0A5F8CDE93F
:101C60000001606A02F02EFA0022604B02F080F957
:101C700002460B46DDE9000102F08EF902F014FA8B
:101C800008EE100AF7EE008A38EEC89A5846FEF7BA
:101C900023FF07EE900A94ED0A7AB8EEC77A77EE42
:101CA000C77A78EEE78A29EE286A68EE288A29EE54
:101CB000279A28EE278A9BED027A67EE066A94ED52
:101CC000027A37EE267A84ED027AD4ED067A77EE40
:101CD000867AC4ED067ADBED027A27EEA87AD7ED94
:101CE000027A77EE877AC7ED027AD7ED067A77EE39
:101CF000A88AC7ED068ADBED027A27EE897AD5ED50
:101D0000027A77EE877AC5ED027AD5ED067A37EE5C
:101D1000899A85ED069ADBED027A27EE887AD6ED70
:101D2000027A77EE877AC6ED027AD6ED067A37EE3A
:101D3000888A86ED068A5846FEF79EFF029B09FBBD
:101D400000395846FEF79AFF044608FB0090FEF75C
:101D50009CFD00283FF4A1AE404600FB04F40223A2
:101D600049F8043099E6049FDDF8148033E0636895
:101D7000E361A36823622C34B4422AD0D4ED057AFF
:101D8000F5EEC07AF1EE10FA05DDD4ED016A86EECB
:101D9000A77A84ED017AD4ED067AF5EEC07AF1EEF9
:101DA00010FA05DDD4ED026A86EEA77A84ED027A98
:101DB0002368002BDBD100256560A56021465046D5
:101DC000FEF7E2FD456021465046FEF725FE8560A0
:101DD000CDE707F5BB67474503D03C4607F5BB6633
:101DE000CAE707B0BDEC048BBDE8F08F0000E03F10
:101DF0002DE9F04F2DED088B85B0834609EE901A42
:101E000000F5A34909F1540900F503430C3303938A
:101E1000F6E09FED068A63E1DFED04AA68E19FED3D
:101E200003AA6DE1DFED016A72E100BF000000006E
:101E30004846FEF723FF06460BF104044FF4BB604F
:101E400000FB05442C2505FB064529465846FEF7B0
:101E50009BFD824629465846FEF7DEFD07460146B1
:101E60005846FEF791FD804618EE100A08F09CFFD8
:101E7000CDE90001686A02F025F90022F04B02F07A
:101E800077F802460B46DDE9000102F085F802F022
:101E90000BF908EE100AB7EE009A39EE48BA484638
:101EA000FEF71AFE08EE900AD5ED0A7AF8EEE77A08
:101EB00078EEE78A39EE689A6BEE09BA28EE099A4D
:101EC0002BEE28BA68EE288A2846FEF7D3FC0028B5
:101ED00040F0B281B7EE008A5046FEF7CBFC0028F6
:101EE00040F0B481F7EE00AA3846FEF7C3FC0028A4
:101EF00040F0AF81B7EE00AA4046FEF7BBFC0028D9
:101F000040F0AA81F7EE006A68EE2B7A2AEE899AF1
:101F100037EE897A2AEE0B6A37EE067A26EEA88A21
:101F200037EE087AB5EEC07AF1EE10FA66DD2C20B5
:101F300000FB0644D4ED024A67EEA46A9AED025A09
:101F400069EE055A76EEA56AD7ED025A26EE254AC5
:101F500076EE846AD8ED028A28EE284A76EE846A04
:101F600086EE87AAD4ED086A74EEE64A67EEA47A94
:101F7000DAED086A35EE665A29EE059A77EE897A27
:101F8000D7ED086A75EEE65A26EE256A77EE867A70
:101F9000D8ED086A78EEE68A28EE288A77EE887A05
:101FA000C7EE876AD9ED027A77EEA67A69EEA77A4C
:101FB00017EE900A08F0F8FE04460D461AEE100AD5
:101FC00008F0F2FE06460F4619EE900A08F0ECFE05
:101FD00002460B4600209B4901F0DEFF02460B46FD
:101FE0003046394601F0ECFF02460B4620462946B2
:101FF00001F0BEFF02F058F8C9F8080009F1240901
:10200000039B994500F02B814846FEF735FE0646B6
:102010004846FEF761FD08EE900A4846FEF72EFEA0
:1020200007EE900AF8EEE77A78EEE77AB6EE007AF5
:10203000F4EEC77AF1EE10FA01DC441EE0B20BF1C7
:1020400004054FF4BB6202FB065582462C2404FBB8
:10205000005421465846FEF797FC804621465846D4
:10206000FEF7DAFC064601465846FEF78DFC0746A9
:102070004846FEF72FFD08EE100AD4ED097AF8EE77
:10208000E77A38EE678AB7EE009A39EE48BA18EE6A
:10209000900A08F089FECDE90001A06A02F012F86A
:1020A0000022674B01F064FF02460B46DDE90001A8
:1020B00001F072FF01F0F8FF08EE900A39EE689A1D
:1020C0006BEE09BA28EE099A2BEE28BA68EE288A38
:1020D0002046FEF7CFFB00287FF49BAEB7EE008AC8
:1020E0004046FEF7C7FB00287FF496AEF7EE00AA45
:1020F0003046FEF7BFFB00287FF491AEB7EE00AA92
:102100003846FEF7B7FB00287FF48CAEF7EE006A86
:1021100068EE2B7A2AEE899A37EE897A2AEE0B6AD4
:1021200037EE067A26EEA88A37EE087AB5EEC07A40
:10213000F1EE10FA66DD2C2000FB0A55D5ED014AC0
:1021400067EEA46A98ED015A69EE055A76EEA56A23
:10215000D6ED015A26EE254A76EE846AD7ED018A3D
:1021600028EE284A76EE846A86EE87AAD5ED076ABD
:1021700074EEE64A67EEA47AD8ED076A35EE665A41
:1021800029EE059A77EE897AD6ED076A75EEE65A5A
:1021900026EE256A77EE867AD7ED076A78EEE68A2C
:1021A00028EE288A77EE887AC7EE876AD9ED017A19
:1021B00077EEA67A67EEA97A17EE900A08F0F4FD9A
:1021C00004460D461AEE100A08F0EEFD06460F46CC
:1021D00019EE900A08F0E8FD02460B460020194966
:1021E00001F0DAFE02460B463046394601F0E8FEC1
:1021F00002460B462046294601F0BAFE01F054FF84
:10220000C9F804004846FEF765FC08EE100A484687
:10221000FEF732FD054607EE900AF8EEE77A78EE13
:10222000677AB6EE007AF4EEC77AF1EE10FA3FF76D
:10223000FFAD441EE5B2FBE59FED038A4CE600BF0F
:102240000000E03F0000F03F000000005FED02AA48
:102250004AE61FED03AA4FE65FED056A54E605B0B6
:10226000BDEC088BBDE8F08F10B50446FFF722FBEC
:102270002046FFF7E5FB28212046FFF723FB104906
:102280002046FFF7B5FD2046FEF706FB2368013325
:102290002360B3F5966F0BD0B3F5C86F0CD0B3F5D0
:1022A000166F08D1074B01221A600023236002E059
:1022B000044B00221A6010BD024B02221A60FAE79A
:1022C0006666663FF021002038B501F0F1FA44F669
:1022D0002063C4184FF0000341EB0305002C75F197
:1022E000000308DA4FF0FF346FF0004503E04FF0D1
:1022F000FF346FF000452046294601F05BF906489F
:10230000FFF7B2FF14F57A5445F10005002C75F182
:102310000003F0DAEBE700BFC4D2002038B501F0CB
:10232000C7FA44F62063C4184FF0000341EB0305DD
:10233000002C75F1000320DA4FF0FF346FF00045F8
:102340001BE04FF0FF346FF0004516E01923002228
:1023500042EC40302046294601F02CF90C4A0D4948
:102360000D48FEF7E3F8FEF725FA14F57A5445F127
:102370000005002C75F10003E3DB074BB3F90030D7
:10238000002BE3DD1923012242EC4030E2E700BFDD
:10239000866401208464012082640120016001229E
:1023A000B2F51C7F1ED210B4531E50F8231081EAE0
:1023B000917113090E4CA4FB03439B084FF41C744A
:1023C00004FB13230B4C04FB013340F82230013291
:1023D000B2F51C7FE8D34FF41C73C0F8C0395DF828
:1023E000044B70474FF41C73C0F8C039704700BFEE
:1023F0001BA4411A6589076C70B582B005460E466C
:1024000061B1941B01940F2C0DD82868012C13D0B6
:10241000A4B12246314608F063F90FE09142F0D0B2
:102420000A4806F0CFFB002201A9284606F040FC2E
:102430002860019BAB60E8E733780370019B6B6019
:102440002A680021D15402B070BD00BF70B00010E6
:1024500010B4002203E04B4040F822302246E22A2A
:1024600014D850F8223003F00043541C50F82410C4
:1024700021F000410B4302F28D1150F8211081EA46
:10248000530113F00103E6D01C4BE4E7E32203E021
:102490004B4040F82230224640F26E239A4214D834
:1024A00050F8223003F00043541C50F8241021F05F
:1024B00000410B43A2F1E30150F8211081EA5301DE
:1024C00013F00103E4D00D4BE2E7D0F8BC3903F080
:1024D0000043026822F000421343D0F8302682EA1B
:1024E000530213F0010300D0044B5340C0F8BC3931
:1024F0000023C0F8C0395DF8044B7047DFB008997D
:1025000010B50446D0F8C039B3F51C7F13D2D4F807
:10251000C0395A1CC4F8C02954F8233083EAD323A5
:10252000064800EAC3104340054800EAC33058405B
:1025300080EA904010BDFFF78BFFE8E780562C9DA6
:102540000000C6EF38B52DED028B05460124B7EE2D
:10255000008ADFED168AC4B12846FFF7D1FF07EEE7
:10256000900AF8EE677A67EE887A78EEA78A18EE16
:10257000100A08F019FC00220D4B01F021FD01F0BA
:1025800093FD08EE100A013CE5E7C8EE887AB7EE45
:10259000007AF4EEC77AF1EE10FA04DA17EE900A38
:1025A000BDEC028B38BDDFED037AF7E700000000D9
:1025B0000000F041FFFF7F3F10B52DED028B86B08C
:1025C00008EE900A08EE101A234BD3E88F3F13F061
:1025D000010F16D0214BD3E88F3F13F0010F2BD002
:1025E0001F48FFF7AFFF07EE900A38EE688A27EE24
:1025F000888A78EE887A17EE900A06B0BDEC028BD6
:1026000010BD154806F0E8F90028E3D002AC0094AC
:10261000144A4FF00003D11F6846FFF7EDFE6946EC
:10262000114806F01DFB0098A04201D001F022FEE7
:10263000094806F0EDF9CDE7084806F0CDF9002885
:10264000CED0094806F030FB01460548FFF7A6FE4C
:10265000024806F0DDF9C3E7D82C0020DC2C00206E
:1026600058380020A3B00010942E00202DE9F0412E
:102670000746002123E0381D4FF4BB6202FB010036
:102680002C2202FB03F28518002484502C613A1D91
:102690004FF4BB6404FB01202C2202FB03025162B5
:1026A00093620133212B09D801EB0112264800EB7C
:1026B000C20252F82320002AE9DADCE701310D29B1
:1026C00001D80023EEE7214803F006F807F5A344FC
:1026D000543407F5034808F10C08002600E02434C0
:1026E000444527D01A494FF07E50FFF765FF054655
:1026F00018494FF07E50FFF75FFF024629462046FB
:10270000FEF7A2F900236360A3602661013620462C
:10271000FEF7B2FA3D1D4FF4BB6303FB00552046A4
:10272000FEF7ACFA2C2303FB0050FEF7A3F80028B9
:10273000D8D1D4E7084A094907F5A3405430FEF739
:1027400083F9BDE8F08100BFD4B20010A4B000103E
:10275000E7FB4F41FAFE0342CDCC8C3F0000A04086
:1027600000B585B003AB02AA01A9284801F048F9D9
:1027700018B92649264800F0A7F8039A029901984B
:1027800001F00CF902F0A4FF2249234806F02AF8D0
:102790000321022000F056F800220121022000F05F
:1027A0006FF80321084600F04DF8002201210320B4
:1027B00000F066F8192000F07DF80124192344EC9C
:1027C0004430152000F076F8152344EC443044ECF6
:1027D00040300023114A1370114A1370FDF71AFF9D
:1027E0000A2000F067FF0F4802F076FF0A2000F091
:1027F00061FF0D48FFF73AFF0C4802F06DFFFDF74F
:10280000D9FF0B4806F0D6F8FFF788FD90D00300FB
:10281000C4B00010801A060098220020EC2C002082
:10282000B02D0020B4B00010C4D20020BCB0001005
:10283000C922001008B54FF6FF710120FDF78EFD8B
:1028400008BD000010B40D4B03EB800253F820309C
:1028500083F0400303F0C00302F580542360C000FE
:1028600000F1804000F52030416002F540524FF405
:10287000807313605DF8044B704700BF0480034011
:1028800030B40B4D05EB800469B108236AB1042212
:10289000134355F82020534003F00C0304F58054F3
:1028A000236030BC70470023F0E70022F0E700BF50
:1028B0000480034008B5002242EC440042EC400092
:1028C0000521FFF7BFFF08BD0FB400B583B0049C1E
:1028D000074802F001FF3CB105A90191204602F032
:1028E0000BFF044802F0F8FE012002F097FD00BF44
:1028F00044BA001054BA0010EFF3108072B6064BC1
:10290000D3E8CF1F01220029FAD1C3E8412F0029C3
:10291000F6D1BFF35F8F70479B6401200023034A09
:10292000C2E88F3F80F31088704700BF9B6401208E
:10293000F8B505460C461646FFF7DEFFE208A95C2F
:1029400004F007070123BB40194205D1DBB20B435A
:10295000AB54FFF7E3FFF8BD21463046FFF7B4FF65
:10296000F8B506460D4614461F46FFF7C5FFBC42A4
:1029700010D8E20806EBD40CB35C04F00701012286
:102980008A40134201D00134F1E7D2B21A438CF8E5
:10299000002001E04FF0FF34FFF7C0FF002C01DB07
:1029A0002046F8BD002DFBD00698FFF78DFF0000F4
:1029B000054A1078431CDBB21370172B02D913465B
:1029C00010221A70704700BFF421002000B583B0B8
:1029D0000146054B00931F2318220448FFF7C0FF50
:1029E00003B05DF804FB00BF58BA0010784800201F
:1029F000024A136843F000531360704708E000E098
:102A000000231F2B06D8044A1A440021C2E88F1F56
:102A10000133F6E7704700BF90640120064B9B68C6
:102A2000103043F82010BFF35F8F00230349C1E843
:102A30008F3F82F31088704700ED00E09964012019
:102A40000048704700E400E008B5FFF7F9FF0023F5
:102A500004E04FF0803240F8042B01330C2BF8D9FE
:102A600008BD000008B5091A081F01F2FC7140F604
:102A7000FE73994207D810F0010F04D1C0F34A0049
:102A800040F4604008BD034B034A40F20111034883
:102A900002F0E8FC74BA00107CBC0010A4BA00106C
:102AA0004209064B53F8222000F01F00012303FACD
:102AB00000F0024214BF18460020704700E100E019
:102AC0003AB1064B00F1600243F8221043F820109F
:102AD00070472030014B43F82010704700E100E0C0
:102AE00008B50A4600F01F03012199404009FFF78D
:102AF000E7FF08BD00F01F0240090123934040306A
:102B0000014A42F82030704700E100E0024B9B6828
:102B1000103053F82000704700ED00E008B5FFF7D3
:102B2000F5FF28B1044A831A2F2B03D8012008BDD2
:102B30000020FCE70020FAE7F821002070B50546E8
:102B40000C46EFF3108672B60F4BD3E8CF1F01226D
:102B50000029FAD1C3E8412F0029F6D1BFF35F8FD6
:102B6000FFF7D4FF094B984201D0A04205D132466D
:102B700021462846FFF752FF70BD054B054AE1216B
:102B8000054802F06FFC00BF996401201D01001090
:102B9000E4BA001060BC0010A4BA00102DE9F04F98
:102BA00087B000911546EFF3108A72B6864BD3E8D2
:102BB000CF1F01220029FAD1C3E8412F0029F6D105
:102BC000BFF35F8F814B93F90040002C44DB8046BC
:102BD00004EB44077E4B03EB870797F906107B4A0B
:102BE00011707C4A926800F1100152F82190A9EB13
:102BF00003022F2A3ED9784B994534D14FF4214313
:102C0000ADF80C304FEA440904EB4400704E06EB7B
:102C1000800072490230FFF725FFADF80E004BF639
:102C20000153ADF81030FF238DF812308DF813509A
:102C3000009B05934C4406EB840406AB13E90700A4
:102C400084E8070047F00109524649464046FFF72D
:102C5000E5FE07B0BDE8F08F614B624A40F26D11AE
:102C6000614802F0FFFB614B5E4A4FF4BA715E4867
:102C700002F0F8FB29F0010BABEB03035C4AA2FB6B
:102C80000312D20802EB4202B3EB820F0FD15B4674
:102C90000026DA79AA4212D993F90620002A0DDB20
:102CA00002EB42021E464A4B03EB8203F1E7514B13
:102CB0004C4A40F285114C4802F0D4FB1E46002ECF
:102CC00048D044F60103ADF80C304FF48F43ADF813
:102CD0000E3096F906B0BBF1000F1ADA4BF6015030
:102CE000ADF810008DF812B08DF81350009B0593CD
:102CF0003946301DFFF7B6FEB080B47104EB4404D2
:102D0000334B03EB840406AB13E9070084E80700A8
:102D10009AE704EB44002E4B03EB80000430311D96
:102D2000B388DA0A1C2A08D15B050DD45B1502337F
:102D300001EB4301FFF796FED2E72F4B2F4A40F2FB
:102D40000F11294802F08EFB03F5FF1303F5FF5323
:102D50001F33EBE74FF42143ADF80C3063000193D0
:102D600004EB4406DFF8689009EB86061B49B01CAB
:102D7000FFF778FEADF80E005946301DFFF772FEE2
:102D8000ADF810004AF6AA235A464946521A524153
:102D900053431B0D8DF812308DF81350009A059295
:102DA000019B1C4409EB840906AB13E9070089E881
:102DB000070044F60103ABF800304FF48F43ABF843
:102DC000023047F001093FE7996401208B6401203C
:102DD000F821002000ED00E01D0100102822002055
:102DE0001CBB001098BC0010A4BA001044BB00101B
:102DF000ABAAAAAA6CBB0010F0BB001088BC0010E4
:102E000070B540F00105324BEB1A2F2B30D8EFF3A1
:102E10000581C9B2002932D0EFF3108672B62D4B6E
:102E2000D3E8CF4F0122002CFAD1C3E8442F002C65
:102E3000F6D1BFF35F8F4AF6AA230246244C121B39
:102E4000524153431B0D5CB2234B9B6853F8213016
:102E5000AB421BD00023032B33D803EB43021C49A6
:102E600001EB820292F90620A2421FD00133F2E761
:102E70001A4B1B4A40F26E211A4802F0F3FA1A4B21
:102E8000174A40F27121174802F0ECFA124B9B6886
:102E9000164A43F82120164B1A7882711C700023C1
:102EA0000C4AC2E88F3F86F3108870BD0A4603EBD8
:102EB000430102EB8101FF258D714BF601528A809F
:102EC000E9E70C4B064A40F28221064802F0CAFAB2
:102ED000F82100209964012000ED00E008BC0010FA
:102EE000B0BC0010A4BA001030BC00101D010010CE
:102EF0008B6401203CBC001000B583B00146074B39
:102F00000093052300220648FFF72AFD002801DB75
:102F1000C0F1330003B05DF804FB00BF44BC0010F7
:102F20008F640120014B0B440360704790640120C3
:102F300010B50446FFF73CFD01462046FFF7F2FFBF
:102F4000FF232371BFF35F8F10BD10B50446FFF759
:102F50002FFD01462046FFF7E5FFFF2323710023E5
:102F60006371BFF35F8F10BD10B50D4C09E00D4BC1
:102F70000D4A1A210D4802F075FA2046FFF7D8FFD6
:102F800008340B4B9C4209D22368002BF5D0012B4F
:102F9000EDD12046FFF7D9FF0834F2E710BD00BF9E
:102FA000F02A0020CCBC001078BD0010ECBC001052
:102FB000002B0020024B0B440360BFF35F8F704770
:102FC0009064012010B504460120FFF7FFFC014684
:102FD0002046FFF7EFFF10BD41EA004070470000B8
:102FE00010B40E4B1A68EFF3108172B6D2E8CF4FCF
:102FF0000120002CFAD1C2E8440F002CF6D1BFF317
:103000005F8F1A680023C2E88F3F81F3108840BFAA
:10301000002000215DF8044B704700BF646401206C
:103020002DE9F04F8FB0EFF30583DBB2103B9A0828
:103030001BD0DFF8A48203F003010791A64B98454B
:1030400014BF0023012301EB8303A44A52F8239009
:1030500099F800308B420BD10123079A93401A460E
:10306000069308F541535A6052E1DFF88482E2E7A3
:103070009B4B9C4A92219C4802F0F4F9D9F81460C9
:1030800004EB4405EF0006EBC505D5E90223CDE9C5
:103090000223404600F0F8FB029BC31A0493039BF3
:1030A00061EB03030593DDE90412002972F10003CB
:1030B000C0F23681DDE90223002A73F1000375DBDB
:1030C0002B691A460893894B9A423DD0698889B288
:1030D000B9F90800FFF780FF6969089B98470890D5
:1030E0000991DDE9080150EA01035FD0002871F180
:1030F000000335DA029B1A1A039B63EB010CAA60EA
:10310000C5F80CC0F35F002BC0F20A81D9F814E0B7
:1031100003EB43010EEBC1018868C968101A0A90DD
:103120006CEB01010B91DDE90A01002871F100014E
:10313000C0F2F680494621F8083FCDE902ABCDF850
:103140002090DDE90C9A15E06A691369089210462F
:10315000984758B3089AD2E90023CDE90823C0E77D
:10316000404600F091FB089BC218099B41EB030C01
:10317000C5E71946B1F90050002D0EDB05EB4503FC
:103180000EEBC3039868B2EB0009D8686CEB000A39
:10319000B9F1000F7AF10000EBDACDE90C9ADDE924
:1031A00002ABDDF82090F5530C80B9E0F35FA9F88D
:1031B0000830D9F81030EFF3108272B6D3E8CF0F91
:1031C00001210028FAD1C3E8401F0028F6D1BFF33F
:1031D0005F8FB9F90230F353A9F80240D9F8101003
:1031E0000023C1E88F3F82F3108899E0D9F81030AE
:1031F000EFF3108272B6D3E8CF0F01210028FAD185
:10320000C3E8401F0028F6D1BFF35F8FB9F804C0B0
:103210000FFA8CFC4FF6FF73A9F80430D9F81010A0
:103220000023C1E88F3F82F3108819E01846B0F9F7
:103230000020002A0EDB02EB420306EBC303996871
:10324000DD68B4EB010A67EB050BBAF1000F7BF107
:103250000001EBDAA0F800C036F90EC026F80E2007
:10326000BCF1000F62DBD9F814600CEB4C034FEAA1
:10327000C30E06EBC3039C68DF6809F10800D6E7BC
:10328000002389F8063009F10807B9F9083010E081
:103290004FF0FF344FF0FF35C0E90245B9F908009F
:1032A000984205D03A80B9F908008853A9F8083047
:1032B0001346B3F1FF3F3DD0D9F8141003EB43029E
:1032C000D60001EBC20031F93220448814F4004FDB
:1032D000DED10746ECE700BF00800B403C640120D4
:1032E000B0BD0010A0BE0010DCBD001021300010E9
:1032F00000000B40404600F0C7FA231A009365EB2C
:1033000001030193DDE90034012B74F1000331DA8C
:10331000069BC8F83C30B9F90840002CBFF6AEAEA9
:10332000B9F8043013F4004F3FF460AF99F8063059
:10333000002BA5D1B9F90830002B1BDBD9F81420DC
:1033400003EB430302EBC303D3E90245B5F1FF3FAF
:1033500008BFB4F1FF3FCDD0D8F82820A11A0798B4
:10336000031D58F823309B1A9942C3D2031D48F815
:103370002340BFE740BF0FB0BDE8F08F2DE9F04715
:1033800005468A4691469846C160FFF711FB1F4BE0
:1033900003442B6185F800901FFA88F36B814FF08E
:1033A000504212786A704FF6FF722A81AA80013B60
:1033B0006B800024444507D2671E686904EB44060D
:1033C00020F836700134F5E7114B9A450CBF042301
:1033D00000234B440F4A42F8235014D000254D449B
:1033E000012606FA09F4CAF820400B492846FFF7DF
:1033F000A5FB31462846FFF773FB0AF5015ACAF8C8
:103400000040BDE8F0870425E9E700BF9064012093
:1034100000800B403C6401202130001008B5054BB2
:103420001B690BB1034808BD034B044A65210448DE
:1034300002F018F84022002014BE001088BE0010D0
:10344000DCBD0010F8B504460169EFF3108C72B6CC
:10345000D1E8CF5F0120002DFAD1C1E8450F002D42
:10346000F6D1BFF35F8FB4F90250666905EB4500F2
:10347000C70006EBC000002D01DBF15F61804FF05B
:10348000000E2169C1E88FEF8CF31088754532DB9F
:1034900006990161079941618260C360418889B2E0
:1034A0000131C1F30E0101B9012141802846FFF726
:1034B00093FD2369EFF3108272B6D3E8CFCF0121D9
:1034C000BCF1000FF9D1C3E84C1FBCF1000FF4D1DF
:1034D000BFF35F8FA388F353A58021690023C1E860
:1034E0008F3F82F31088E368217801228A4003F538
:1034F00001535A60F8BD4FF0FF30FBE72DE9F04172
:1035000082B0804614461D469DF8283043B900F02D
:10351000CFF9261A65EB0107002E77F100030BDBCC
:10352000099B0193089B009322462B464046FFF7D8
:1035300089FF02B0BDE8F0810020FAE70346408928
:10354000B0EB214F31DD70B40A14586902EB42022E
:1035500000EBC2021869EFF3108472B6D0E8CF6FA7
:103560000125002EFAD1C0E8465F002EF6D1BFF348
:103570005F8F508880B289B2884210D000201969CC
:103580000022C1E88F2F84F3108830B1DA681B78ED
:103590000121994002F50153596070BC704740F415
:1035A0000040508001209871E9E700207047407882
:1035B000704700002DE9F04385B0EFF30583DBB2DF
:1035C000E3B906460F46841F41F1FF35A94208BF03
:1035D000A04201D20024002500F06AF9B4EB0008F3
:1035E00065EB0109B8F1010F79F1000309DA304602
:1035F000394600F065F905B0BDE8F0831E48FFF7D5
:1036000063F9FFF70BFF0023029301931B4B009319
:1036100022462B46FFF772FF00281EDAE7E7002359
:1036200000E00023002BE2D1154B1A68EFF3108164
:1036300072B6D2E8CFCF0120BCF1000FF9D1C2E8B9
:103640004C0FBCF1000FF4D1BFF35F8F1A68002359
:10365000C2E88F3F81F3108820BF0A4B5B6A9D420E
:10366000DFD80849896AA14203D29D42D7D00123FD
:10367000D8E70123D6E700BF38BE0010E12F0010C5
:103680006464012000000B40F8B504460D4600F0CC
:103690000FF9261845EB0107002E77F1000304DB34
:1036A00030463946FFF786FFF8BD4FF0FF366FF022
:1036B0000047F5E710B504464201C30E121A63F144
:1036C0000003990041EA92719000001941F1000154
:1036D000CB0043EA5073C20010461946FFF7D4FFEF
:1036E00010BD000070B584B005460C46EFF30583AD
:1036F000DBB293B13C4B5B6A8B4209D33A4A926A84
:10370000824208D28B4201D0012002E0002000E07A
:10371000002004B070BD0120FBE7FFF77FFEC36807
:103720000278996A6E1A043253F822305B1A9E426C
:1037300012D320BF2C4B5B6A9C4209D82A4A926A5A
:10374000954207D99C4201D00120E2E70020E0E742
:103750000020DEE70120DCE7002302930193234BE6
:1037600000932A462346FFF7C9FE061E0BDD1E4BBB
:103770005B6A9C421BD81C4A926A95422BD99C4298
:1037800013D0012314E0184B5B6A9C4209D8164AF7
:10379000926A954207D99C4201D00120B9E70020E6
:1037A000B7E70020B5E70120B3E7002300E00023DE
:1037B00003B920BFFFF732FE3146FFF7BFFE0A4BC9
:1037C0005B6A9C420BD8084A926A954209D99C428E
:1037D00003D001209DE70123EAE7002099E70020BC
:1037E00097E7012095E700BF00000B40E12F001094
:1037F0000048704700000B4010B50A4B1B6923B10D
:103800000A210948FFF78EFB10BDFFF7F1FF0446C0
:10381000032100F027F81023032221460148FFF777
:10382000ADFDEDE74022002064640120016842689C
:10383000084B5B6A9A4209D80648806A884207D2D8
:103840009A4201D001207047002070470020704745
:103850000120704700000B40C0E90023004870477A
:103860002D38001010B5054A054C064BA04214BF78
:103870001846581CFFF75CF810BD00BFB8BE00101A
:1038800000800B407C4800200246436A906A19463B
:10389000536A9942FAD17047416A994202D2416A09
:1038A000FBE7416A994202D1816A9142F9D370479C
:1038B00008B50248FFF7E8FF08BD00BF00000B4055
:1038C00008B502460B460248FFF7E6FF08BD00BFF9
:1038D00000000B40F0B4049E00EB4004A40004F18F
:1038E000804404F580346568B54200D26660071FE5
:1038F000FFB2012F28D904F540554FF4006CC5F8EC
:1039000000C01D4D55F820C0BCF1000F07D06D69F7
:10391000B5FBFCF5013505EB4505033DFDD22568FA
:1039200085EA421202F0E00204F580552A60012F78
:1039300017D904F500524FF40061116066600E4A19
:1039400042F82030F0BC70470129D4D104F540552D
:103950004FF0030CC5F800C0A56815F0010FFBD0AF
:10396000DDE722684A4002F003022A60A5680122CE
:103970008A401542FAD0DCE78048002010B582B0BA
:103980004FF480340094FFF7A5FF02B010BD000093
:10399000014B53F82000704780480020F0B583B0F9
:1039A00004460E461546134F3B460122114605209C
:1039B000FFF7E4FF00953346224601210E4800F050
:1039C00055F805FB06F5B4FBF5F40C4B002202217B
:1039D0000420FFF7D3FF2346002201210520FFF733
:1039E000CDFF3B46022200210620FFF7C7FF03B0B0
:1039F000F0BD00BF006CDC0200000540001BB700FA
:103A0000F0B59E464FF4A07C1AE0013C94B104FB53
:103A100003F5B7FBF5F68642F7D105FB1675002DC9
:103A2000F3D1104800FB0CF008601360CEF80040A2
:103A30000120F0BD013B0BB11C46E7E70CF1FF3C58
:103A4000BCF10F0F0CD942F6E06707FB0CF7A7F5A6
:103A50003724A4F5D874044B9C42EFD80723EAE737
:103A60000020E6E7001BB70050F80C00F8B5069CF4
:103A7000324DB5FBF1F5324E1644324FBE4233D8CB
:103A8000B2FBF5F6A6F11007B7F5987F32D85F1EA6
:103A9000062F35D8671E062F32D8B5EB121F35D842
:103AA000240344EA03440368002B35DB264B984289
:103AB00042D00E2301229A40244B1A6003F5805312
:103AC0001A60234B1B6832EA0303FAD10160866057
:103AD00000F540520432212313600368002BFCDA06
:103AE000C46008231360F8BD1A4B1B4A11211B4800
:103AF00001F0B8FC1A4B184A1921184801F0B2FC21
:103B0000184B154A1C21154801F0ACFC164B124A03
:103B10002321124801F0A6FC036803F03F038B4207
:103B2000C4D18368C3F30B03B342BFD1C36803F4AA
:103B3000EE23A342BAD1D6E70F23BBE7001BB700A1
:103B400080E84BD380F8A932008005400020024075
:103B500008000240DCBE0010F0BF00102CBF0010B7
:103B60006CBF001088BF0010D4BF0010024B1A6851
:103B7000024B5A60704700BFC0D2002000800D4049
:103B800008B5164B4FF080421A60A3F54023A3F608
:103B9000F873134A1A6049B1124B4FF0E0621A6091
:103BA00048B9104B4FF000421A6008BD0B4B4FF064
:103BB000E0621A60F4E74FF47A7303FB00F00A4BFB
:103BC0001860B0F1807F02D36FF07F421A60FFF778
:103BD000CDFF044B4FF080421A60E6E700B00D4085
:103BE000F3FFFF0100A00D40C0D2002010B50C4B28
:103BF0004FF080441C6070B140F0010309480A4C4A
:103C0000C4610A4C5C400462416283620021104638
:103C1000FFF7B6FF10BD034B0021D961F6E700BFE7
:103C200000B00D4000800D40D3C007B02D3FF84FCD
:103C3000054A00EB400302EB8303596000EB4000B0
:103C40008000012313507047008010402DE9F0419F
:103C500005460E461746984616231B88002242E862
:103C600000F212F4800F0BD1102144F25220984739
:103C7000044643463A4631462846A047BDE8F0810F
:103C8000042144F2522098470446F2E708B516236F
:103C90001B88002242E800F212F4800F02D11021AA
:103CA000984708BD04219847FBE708B5031E06DBCB
:103CB00041F0200012B141F0300100E001460A4617
:103CC0000A214FF48170FFF7C1FF0000034B1B680E
:103CD000002BFBD0BFF35F8F704700BF28080E405A
:103CE000002207E0054B13449B00BFF35F8F0021C8
:103CF00019600132072AF5D9704700BF038203100B
:103D000008B5FFF7EDFF08BD074B4FF42A621A60B4
:103D10002F22DA6003F50053044A1A60024B5B68F5
:103D2000002BFBDA704700BF0080044000B0FA00AF
:103D300010B50446034B9C4203D254F8043B984709
:103D4000F8E710BD68AF00107047000008B50248E2
:103D5000FFF7EEFF08BD00BF28AF001008B502480E
:103D6000FFF7E6FF08BD00BF54AF0010064B074A3F
:103D70001A6003F58053064A1A60064B1A68044B12
:103D80009343FAD1704700BF002002407F3BEFEF22
:103D9000F6FFF30308000240054BDB6CB3F5004F60
:103DA00000D07047034B4FF480221A60F9E700BF40
:103DB000000011504C201150034A1168034B0B4373
:103DC000136010EE3004704788ED00E0030330000C
:103DD000054B6FF060421A60044B1B68DB4333F005
:103DE0006043F9D1704700BF003002400800024034
:103DF00008B545F25320FFF749FF034604209847D2
:103E000008BD08B545F25320FFF740FF03460120E7
:103E1000984708BD08B5FEF7F3FD08BD38B5054C59
:103E2000A168054D4FF48872284606F059FCA5603C
:103E300038BD00BF00ED00E00000002038B50420D0
:103E4000FFF7A6FD064DA5FB0035AD0C0024052CA3
:103E500005DC2946E0B2FFF7EBFE0134F7E738BD99
:103E600083DE1B4330B583B0264B0022C3F8842089
:103E7000FFF74AFF244B01221A60224B5B6C012B97
:103E8000FBD1224B03221A601E4B9B6B012BFBD1F3
:103E90000224009405231E4A01211E48FFF7E6FD77
:103EA000052500952B461C4A01211C48FFF7DEFD25
:103EB0001B4B002221460420FFF760FD194C2346CE
:103EC000002201212846FFF759FD174D2B460022FD
:103ED00011460820FFF752FD2B460022114609200B
:103EE000FFF74CFD2346002211460620FFF746FD52
:103EF0002346002211460720FFF740FDFFF79EFFF3
:103F000003B030BD000001403C3001403030014082
:103F1000002F685900000540008C8647008005404E
:103F2000001BB70080D1F008006CDC0286B003B43F
:103F300051FC0804CDE9020151FC0904CDE904015A
:103F400051EC0A04CDE9060103BCF047BDE800507E
:103F50004EEC00C4BDE800504EEC01C4BDE800507A
:103F60004EEC02C400BD000000B5FFF7DFFF02E029
:103F700010FE30F4F8D441EC100443EC112400EEB0
:103F8000010410EE010480EE200451EC100470478F
:103F900000B5FFF7CBFF02E010FE30F4F8D441EC9F
:103FA000100443EC112400EE010410EE210480EE15
:103FB000200451EC3004704700B5FFF7B7FF02E072
:103FC00010FE30F4F8D410B541EC100443EC112489
:103FD00051EC040453EC0524A0FB024C5FF0000EEE
:103FE000E0FB03CEE1FB02CE4CEC20440024E1FBDD
:103FF00003E444EC30E480EE200451EC5004BDE8CE
:104000001040704700B5FFF791FF02E010FE30F45A
:10401000F8D441EC100443EC112451EC2104A0FB32
:1040200001126FEA820252FB100052FB12F252FBA5
:104030001000A0EBD07C53EC04245CFB13F153EC98
:104040001524A1FB022001FB030053EC4424A2EB46
:10405000000050FB1CF24FEA111312EB017043EB0E
:10406000E27140EA515020EA915020F0070053ECF1
:104070007524A0FB023C53EC752400FB03CC01FB30
:1040800002CC53EC0424ACEB824C40EA5C70A0F10F
:10409000010041EC400480EE200451EC70047047B4
:1040A00000B5FFF743FF02E010FE30F4F8D441EC16
:1040B000100480EE220410EEB204704700B5FFF742
:1040C00035FF02E010FE30F4F8D440EC700400EE4E
:1040D000010410EE210480EE200451EC30047047FE
:1040E00000B5FFF723FF02E010FE30F4F8D440ECF7
:1040F000600400EE010410EE210480EE200451EC77
:104100003004704700B5FFF711FF02E010FE30F4F5
:10411000F8D441EC800400EE010410EE010480EEBE
:10412000400410EE1304704700B5FFF7FFFE02E0F5
:1041300010FE30F4F8D441EC800400EE010410EEDF
:10414000010480EE400410EE3304704700B5FFF721
:10415000EDFE02E010FE30F4F8D441EC100443EC24
:10416000112400EE010410EE3004C0F3007070471B
:1041700000B5FFF7DBFE02E010FE30F4F8D443ECAC
:10418000102441EC110400EE010410EE30F48CBF59
:1041900001200020704700BF00B5FFF7C7FE02E016
:1041A00010FE30F4F8D443EC102441EC110400EE7E
:1041B000010410EE30F42CBF01200020704700BF36
:1041C00000B5FFF7B3FE02E010FE30F4F8D441EC86
:1041D000100443EC112400EE010410EE30F42CBF67
:1041E00001200020704700BF00B5FFF79FFE02E0EE
:1041F00010FE30F4F8D441EC100443EC112400EE2E
:10420000010410EE30F48CBF01200020704700BF85
:1042100070B504460A4E304606F076FE204605F09C
:1042200059FF0546304606F0C7FD2DB12C44054B1D
:104230009C4201D8284670BD0348FEF745FB00BFED
:10424000F02A002000000820FCBF001038B504460A
:10425000054D284606F058FE204605F043FF284647
:1042600006F0AAFD38BD00BFF02A002008B5FFF710
:10427000CFFF08BD08B5FFF7E9FF08BD08B5FFF798
:10428000E5FF08BD704720B108B50A684968904746
:1042900008BD7047014600200A681378303BDBB246
:1042A000092B08D800EB8000531C0B60137803EB3C
:1042B00040003038F0E770472DE9F04F83B00546F5
:1042C0000E4693461F46DDF830A00D9CDDF8389071
:1042D0000F9B13F0030F19D1A0460192C84509D2D4
:1042E00002F1010B3B4631462020A84708F10108A6
:1042F0005A46F3E7DDF804B008E0013C02F101089A
:104300003B4631461AF80400A8474246002CF4D137
:104310000F9B13F0020F03D1104603B0BDE8F08FDE
:10432000A2EB0B034B45F7D2541C3B4631462020F1
:10433000A8472246F4E72DE9F04385B09E460C9D40
:104340000D9C9DF83890DDF83C80DDF840C0119B55
:10435000129E16F0020F1CD14BB116F0010F06D0C1
:10436000B9F1000F02D116F00C0F00D0013B6445EB
:1043700008D21F2C06D830272F550134F7E73027F5
:104380002F55013416F0010F03D09C4201D21F2C8F
:10439000F5D916F0100F15D016F4806F04D11CB1AA
:1043A000644521D09C421FD0B8F1100F27D0B8F13E
:1043B000100F2DD0B8F1020F33D01F2C02D83027A8
:1043C0002F5501341F2C05D8B9F1000F2FD02D2700
:1043D0002F55013403960293019400957346FFF71D
:1043E0006BFF05B0BDE8F083671E06D0B8F1100F73
:1043F00001D03C46D8E7023CD6E73C46D4E716F06D
:10440000200FD4D11F2CD2D878272F550134D4E7D0
:1044100016F0200FCED01F2CCCD858272F550134A2
:10442000CBE71F2CC9D862272F550134C5E716F0FA
:10443000040F03D02B272F550134CBE716F0080FBC
:10444000C8D020272F550134C4E72DE9F04190B0A2
:10445000169D189FDDF86CC00DB92CF0100C1CF4E3
:10446000806614D03DB3002611E03034E4B206F18A
:10447000010E0DF14008464406F8204CB5FBF7F458
:10448000BD4219D3BEF11F0F16D876462546B5FB9F
:10449000F7F407FB1454E4B2092CE6D91CF0200F02
:1044A00006D04FF0410E7444E4B20A3CE4B2DEE7B9
:1044B0004FF0610EF7E7AE46CDF818C01A9C059490
:1044C000199C049403979DF85C400294CDF804E095
:1044D00008AC0094FFF72FFF10B0BDE8F0812DE984
:1044E000F04F95B009900A910B929B46DDE91E456D
:1044F000DDE92289DDF898A054EA050301D12AF00C
:10450000100A1AF480661BD054EA05032CD000264A
:1045100016E003F13002D2B2771C14AB1E4406F849
:10452000202C42464B462046294606F035FC4D4598
:1045300008BF444519D31F2F17D83E4604460D46E1
:1045400042464B462046294606F026FCD3B2092BAC
:10455000DFD91AF0200F05D041221A44D2B20A3A0C
:10456000D2B2D9E76122F8E70027CDF818A0259B41
:104570000593249B0493CDF80C809DF88030029322
:1045800001970CAB00935B460B9A0A990998FFF7C9
:10459000D2FE15B0BDE8F08F2DE9F04F91B0044682
:1045A0000D4617461E46DDE91A2310461946FFF749
:1045B000D1FD002840F0E7804FF0FF32A84BDDE945
:1045C0001A01FFF715FE002840F0DD804FF0FF32A2
:1045D0006FF48013DDE91A01FFF7CEFD002840F0EB
:1045E000D28000220023DDE91A01FFF7C5FD002873
:1045F00040F0DC809DED1A7B8DED067B1E9B13F455
:1046000080630D9301D106231C93DDE90612CDE9E9
:10461000081251EA020300F0D080C2F30A50C2F33C
:104620001303884643F07F5949F44019A0F2FF3044
:10463000FFF748FD7AA3D3E90023FFF7C1FC7AA373
:10464000D3E90023FFF794FC82468B460022854B7A
:1046500040464946FFF7A0FC75A3D3E90023FFF7C6
:10466000AFFC02460B4650465946FFF781FCFFF768
:104670004DFD8246FFF726FD804689466EA3D3E9AD
:104680000023FFF79DFC0022774BFFF771FCFFF73B
:104690003DFD83466AA3D3E9002340464946FFF720
:1046A0008FFC804689465846FFF70CFD66A3D3E988
:1046B0000023FFF785FC02460B4640464946FFF7BC
:1046C0006BFC8046894602460B46FFF779FCCDE934
:1046D0000A010BF2FF3B4FEA0B53099300230893A7
:1046E00042464B4640464946FFF742FCCDE90E01A3
:1046F00042464B4600204FF08041FFF74DFC80467C
:1047000089460022594BDDE90A01FFF77FFC0022B0
:10471000574BFFF72DFC02460B46DDE90A01FFF778
:1047200075FC0022534BFFF723FC02460B46DDE9E4
:104730000A01FFF76BFC02460B4640464946FFF76D
:1047400017FC02460B46DDE90E01FFF75FFC002275
:10475000494BFFF70DFCDDE90823FFF731FC8046EC
:104760008946CDE90889DDE90623FFF741FD30B32D
:104770000AF1FF3A00223E4B40464946FFF746FC0D
:10478000CDE908011BE01E9B04931D9B03931C9B1A
:1047900002939DED1A7B8DED007B33463A46294608
:1047A000204600F0FDF811B0BDE8F08F1A9B06938B
:1047B0001B9B03F10043079320E74FF0000A0AF127
:1047C0006303C62B26D84FF004081E9B13F4006F1A
:1047D0005DD0DDE90823134313D01DA3D3E90023E3
:1047E000DDE90601FFF7F0FC002800F0BD801AA308
:1047F000D3E90023DDE90601FFF7BEFC002800F045
:10480000B3801C9B534539DDA3EB0A0A0AF1FF3341
:104810001C9335E04FF00508D7E700BFAFF30080E9
:10482000FB799F501344D33FB3C8608B288AC63F9F
:1048300061436F63A787D23F71A379094F930A4001
:104840001655B5BBB16B0240EF39FAFE422EE63F7A
:104850002D431CEBE2361A3F0000000080842E41FD
:10486000FFFFEF7F0000F83F0000E03F00002C401A
:1048700000002440000018400000F03F00231C937B
:104880001E9B43F480631E934FF00008C2461D9B9D
:10489000984573D2A3EB08091E9B13F0020B04D0BA
:1048A000B8F1000F01D04FF00009BAF1000F07D0A6
:1048B000DDE90823DDE90601FFF7A8FBCDE90601E4
:1048C00000220023DDE91A01FFF756FC002858D129
:1048D0001E9B23F400630493CDF80C901C9B029361
:1048E0009DED067B8DED007B33463A4629462046FA
:1048F00000F056F8B8F1000F3FF455AF1E9B13F0CF
:10490000200F46D04FF0450C00F101093346024616
:1049100029466046A0478AEAEA72A2EBEA720523BA
:10492000059308F1FF330493002303930A230293B2
:104930004FEADA700190009233464A4629462046F3
:10494000FFF783FDBBF1000F3FF42DAF0246DDF80A
:104950007490D31B4B451FD202F101083346294600
:104960002020A0474246F4E71C9B002B8FD00D9BD4
:10497000002B8CD01C9B013B1C9388E74FF0000957
:104980008AE7DDE90601024601F10043CDE906238D
:104990009EE74FF0650CB7E7104604E70000000003
:1049A0002DE9F04F2DED028B95B007900A919246BC
:1049B0009B46DDE92089229D42464B4640464946BA
:1049C000FFF7C8FB002835D14FF0FF326FF480139A
:1049D00040464946FFF7D0FB00283AD14FF0FF325E
:1049E000AF4B40464946FFF703FC002840D1A8A33F
:1049F000D3E9002340464946FFF7FAFB00284FD190
:104A0000A5A3D3E9002340464946FFF7B5FB00289C
:104A100046D10022002340464946FFF7ADFB00285F
:104A20004CD100230B93249B13F4806F00F0B680CD
:104A3000002455E0249B0393239B029303230193BB
:104A4000984B00935B4652460A990798FFF734FC4F
:104A500016E1249B0393239B029304230193924B1F
:104A600000935B4652460A990798FFF725FC07E139
:104A7000249B13F004030FD08C4A7BB104232499A8
:104A8000039123990291019300925B4652460A9941
:104A90000798FFF711FCF3E0854AEEE70323EEE702
:104AA000249B0493239B03930295CDE900895B46E5
:104AB00052460A990798FFF76FFDE1E042464B46E0
:104AC00000200021FFF768FA8046894601230B93F6
:104AD000A9E714AB2344302203F8202C013D013414
:104AE0001F2C01D8092DF4D840464946FFF70EFB8C
:104AF0000646FFF7E7FA02460B4640464946FFF7EF
:104B00004BFA6C4B03EBC50393ED008B53EC182B66
:104B1000FFF756FA02460B46CDE90823FFF708FBDC
:104B20000746FFF7E1FA02460B46DDE90801FFF709
:104B300033FA02460B46CDE9082300225E4BFFF70D
:104B400057FB68B301373846FFF7CEFA02460B46EB
:104B500051EC180BFFF724FB08B1013600276DBBA1
:104B60003046FFF7AFFA02460B4640464946FFF78C
:104B700013FA0746884600224F4BFFF7FDFA00283C
:104B800047D100224C4B38464146FFF731FB002805
:104B90003FD116F0010F3CD001363AE0062547E739
:104BA0000022454BDDE90801FFF7E6FA0028D6D1DF
:104BB00017B117F0010FD2D00137D0E71F2C1BD847
:104BC000013D3E4BA3FB0723DB08194603EB8303A0
:104BD000A7EB4303621C303314A8044404F8203CC0
:104BE000092F2DD90F461446E8E714AA2244302194
:104BF00002F8201C1D4601341F2C02D86B1E002D0C
:104C0000F3D11F2C05D814AB23442E2203F8202CFB
:104C100001341F2C17D82A4A82FB0632F317C3EB44
:104C2000A2031A4603EB8303A6EB4303611C303354
:104C300014A8044404F8203C16461AB10C46E8E7D0
:104C40001446D9E70C46249B03F00303012B39D00B
:104C50001F2C08D80B9B002B50D014AB23442D22C3
:104C600003F8202C0134249B0393239B029301948B
:104C70000CAB00935B4652460A990798FFF71CFB62
:104C800015B0BDEC028BBDE8F08F00BFAFF3008024
:104C90000000000065CDCD410000000065CDCDC114
:104CA000FFFFEF7FACC00010B0C00010A4C0001028
:104CB000A0C00010B8C000100000E03FCDCCCCCCAC
:104CC00067666666239BABB10B9B1BB9249B13F0F5
:104CD0000C0F11D0239B013B2393194605E014AB25
:104CE0002344302203F8202C01348C42B0D21F2CF4
:104CF000F5D9ADE72399F8E72399F6E7249B13F05C
:104D0000040F06D014AB23442B2203F8202C0134CB
:104D1000A9E7249B13F0080FA5D014AB234420224D
:104D200003F8202C01349EE72DE9F04F8FB00746A1
:104D300016460D938846002900F04D8300240D9BF4
:104D40001878002800F04983252809D0651C3346CF
:104D500022464146B8470D9B01330D932C46EEE7A2
:104D600001330D9300252DE0A1F13003DBB2092BB7
:104D700068D92A296BD000230A930D9B1A782E2A12
:104D800075D04FF0000B0D9A1378683B122B00F290
:104D9000AC80DFE813F09800AA000701AA008A009F
:104DA000AA00AA00AA00AA00AA00AA00AA00A600B7
:104DB000AA00AA00AA00AA00AA000C0145F0010559
:104DC00001330D930D9B1978A1F12002102ACBD845
:104DD00001A050F822F000BF314E0010694D0010C4
:104DE000694D00103B4E0010694D0010694D0010D8
:104DF000694D0010694D0010694D0010694D00109B
:104E0000694D0010274E0010694D00101D4E001016
:104E1000694D0010694D0010BD4D001045F00205B0
:104E200001330D93CEE745F0040501330D93C9E737
:104E300045F0080501330D93C4E745F01005013333
:104E40000D93BFE70DA8FFF725FA0A9095E7189B89
:104E50001A1D18921868002804DB0A900D9B013374
:104E60000D938AE745F0020543420A93F6E745F4BD
:104E700080655A1C0D925A78A2F13003DBB2092BDF
:104E800004D92A2A07D04FF0000B7CE70DA8FFF7C2
:104E900001FA834677E7189B1A1D18921B6823EACC
:104EA000E37B0D9B01330D936DE745F48071531C3B
:104EB0000D9352786C2A01D00D4616E045F44075EA
:104EC00001330D9311E045F08001531C0D9352788E
:104ED000682A01D00D4608E045F0C00501330D9366
:104EE00003E045F4807501320D920D9B1878A0F116
:104EF0002503532B00F26582DFE813F058026302AA
:104F00006302630263026302630263026302630279
:104F10006302630263026302630263026302630269
:104F20006302630263026302630263026302630259
:104F30006302630263026302630263027801580141
:104F40007801630263026302630263026302630225
:104F50006302630263026302630263026302630229
:104F600063025E0063026302630263026302630220
:104F70006302630263025E009F015E0078015801D4
:104F8000780163025E0063026302630263026302EC
:104F90005E003D0263026302D80163025E006302A9
:104FA00063025E0045F4007501320D929DE745F401
:104FB000807501320D9298E7782809D058283AD0A8
:104FC0006F283AD062283AD025F010050A2300E075
:104FD0001023582835D0692803D0642801D025F043
:104FE0000C0515F4806F01D025F0010569282BD040
:104FF000642829D015F4007F40F09A8015F4807F52
:1050000040F0B28015F0400F00F0C380189A111DD7
:105010001891127805950A990491CDF80CB0029375
:105020000023019300923346224641463846FFF75B
:105030000CFA044629E01023CBE70823C9E7022332
:10504000C7E745F02005C6E715F4007F21D115F428
:10505000807F46D115F0400F5CD0189A111D189131
:10506000127882EAE271A1EBE27105950A98049048
:10507000CDF80CB00293D20F019200913346224634
:1050800041463846FFF7E1F904460D9B01330D9385
:1050900055E6189A073222F0070202F1080118912A
:1050A000D2F804C01068614600287CF1000214DBCD
:1050B00008950A9A0792CDF818B004930023059337
:1050C0004FEADC730293CDE90001334622464146A4
:1050D0003846FFF704FA0446D7E740426CEB4C0130
:1050E000E6E7189A111D1891126882EAE271A1EBA5
:1050F000E27105950A980490CDF80CB00293D20F96
:10510000019200913346224641463846FFF79DF909
:105110000446BAE715F0800F05D0189A111D1891B2
:10512000B2F900209DE7189A111D1891126898E7AE
:10513000189A073222F0070202F108011891089527
:105140000A990791CDF818B00021049305910291B6
:10515000D2E90023CDE900233346224641463846B2
:10516000FFF7BDF9044690E7189A111D18910595AF
:105170000A990491CDF80CB00293002301931368AF
:1051800000933346224641463846FFF75EF904460F
:105190007BE715F0800F04D0189A111D1891128822
:1051A00038E7189A111D1891126833E746281AD06B
:1051B000189B073323F0070303F1080218920495A4
:1051C0000A9A0392CDF808B0D3E90023CDE9002371
:1051D0003346224641463846FFF7E2FB04460D9B24
:1051E00001330D93ABE545F02005E1E7672801D0D9
:1051F000472801D145F40065452801D0472801D151
:1052000045F02005189B073323F0070303F108023C
:10521000189204950A9A0392CDF808B0D3E90023B6
:10522000CDE900233346224641463846FFF7B4F91C
:1052300004460D9B01330D9381E515F002051FD047
:105240004FF001091898031D189304F1010A334621
:10525000224641460078B847BDB90D9B01330D93F6
:1052600054466CE502F1010A334641462020B84716
:105270004B46524603F101099B45F3D81446E1E73A
:105280000123DDF828B02246F4E75246DDF828A0D5
:1052900006E0551C334641462020B847A1462A4621
:1052A00009F10104CA45F4D89246D6E7189B1A1DA5
:1052B0001892D3F800A0BBF1000F1ED14FF0FF33BE
:1052C000D14602E009F10109134699F8002012B114
:1052D0005A1E002BF6D1A9EB0A0915F480630B9333
:1052E00002D0D94528BFD94615F002030C9306D049
:1052F00022465C46B3460B9E1DE05B46E0E7224635
:105300000A9C4B4607E002F1010933464146202042
:10531000B8472B464A465D1C9C42F4D8A9465C46D9
:10532000B3460B9E07E01C460AF1010A551C5B467A
:105330004146B8472A469AF8000020B1002EF3D023
:10534000631E002CEFD114465E460C9B1BB90D9BCF
:1053500001330D93F3E4DDF828A006E0551C334635
:1053600041462020B847A1462A4609F10104CA4512
:10537000F4D81446EBE745F02105189B1A1D189246
:105380001B68059508220492CDF80CB010220292F9
:105390000022019200933346224641463846FFF7E9
:1053A00054F804460D9B01330D93C8E4651C334645
:1053B000224641462520B8470D9B01330D932C46CC
:1053C000BDE4651C334622464146B8470D9B013378
:1053D0000D932C46B3E4074FB0E4B44208D3721ED9
:1053E000334641460020B84720460FB0BDE8F08F55
:1053F0002246F5E78542001000B585B00290039182
:10540000009313464FF0FF3202A90348FFF78CFCCC
:1054100005B05DF804FB00BF8742001000BEFDE749
:105420000346094A126842B1074A10680344074A12
:10543000934206D8044A13607047034A0449116036
:10544000F2E74FF0FF307047DC48002000000820F2
:1054500074650120002070474FF0FF30704708B599
:10546000FFF7DCFF00B583B00C46194613465AB16E
:10547000074A5BB10193009223460246054800F0BB
:1054800059F90120FFF7CAFF034AF2E7024BF1E79F
:1054900008C1001018C1001028B0001010B5EFF3BB
:1054A0000583DBB203B100BEFEF750FC044C054B94
:1054B0009C4203D254F8043B9847F8E710BD00BF64
:1054C00068AF001078AF001008B5034608461B68A7
:1054D0001146984708BD0000F8B507460D46164628
:1054E000437D13B1002420460CE003681146284692
:1054F00098472EE03B7D10E03B6802211548984715
:10550000601C0134B44214DA002CF3DD2B1913F8BB
:10551000013C0D2B14BF002301232A5D0A2AF0D180
:10552000002BEED1A042E7DA3B68211A28449847C5
:10553000E2E7B04203DA3B68311A28449847002E6C
:1055400007DD354415F8013C0D2B14BF0023012362
:105550003B75F8BD48C1001038B50368BBB10546BE
:105560000B4B1C6806E0294651F8042B2046FFF738
:10557000B3FF24694CB12368002BFAD0054B1B689C
:10558000002BF0D0A342F4D1EDE700232B6038BD0F
:10559000D0480020D848002038B505460C460B6896
:1055A000802B05D021684B1C23600C44257138BD2D
:1055B0000846FFF7D1FFF5E738B5FEF779F90A4B52
:1055C000C4184FF0000341EB0305002C75F10003F4
:1055D00005DB22462B46054805F04EFC38BD4FF052
:1055E000FF346FF00045F4E740420F00F82A002036
:1055F00008B5024805F0E0FB08BD00BFF82A00200E
:105600002DE9F04383B006460D4690461C46FFF751
:10561000D3FF8146B5F1FF3F04D044B1174F184B7B
:105620001C6807E0304605F0D9FA0546F5E7154F46
:10563000F5E72469BCB12368002BFAD0124B1B6834
:105640000BB1A342F5D12A4631462046B847B8F1FE
:10565000000FEED00A238DF8073001220DF107016B
:105660002046B847E5E7B9F1000F03D1284603B05B
:10567000BDE8F083FFF7BCFFF8E700BFD954001086
:10568000D0480020C9540010D8480020084A1368A8
:1056900053B1834202D003F11002F8E731B9036934
:1056A000136000230361704701B11060704700BFB1
:1056B000D048002010B5054B1C6800E0246924B1D7
:1056C0006368002BFAD09847F8E710BDD048002057
:1056D00008B500F097F908BD38B5054605F07EFA23
:1056E000044601231A4601462846FFF789FFFFF7C3
:1056F000E1FF204638BD000070B5A2B004460E465A
:10570000FFF75AFF0546002301933346224601A9BD
:105710000748FFF771FE044601A8FFF71DFFFFF7DA
:10572000C9FF15B9204622B070BDFFF761FFF9E748
:10573000995500100FB400B583B004A951F8040BBB
:105740000191FFF7D9FF03B05DF804EB04B0704797
:1057500070470000014B00221A7070478C640120D2
:105760004B79FF2B0BD18B795BB9CB79012B0AD10C
:10577000082A0AD98A78064B1A7009207047002037
:10578000704700207047002070470020704700BF1E
:105790008C64012001207047012923D108B591882C
:1057A000114B1B78994201D0002008BD5378012B82
:1057B00003D0022B0FD00020F7E7518811F4807F2F
:1057C00006D0480AC1F3402201F07F01FEF76DFACE
:1057D0004FF0FF30F6E7642200210846FEF706FA94
:1057E0000120E2E7012070478C64012000487047E7
:1057F0006CC1001001290FD110B514465378012B4C
:105800000CD19388072B01D0002008E0A623044A7E
:10581000214601F0BBFB02E001207047002010BDD3
:1058200090C1001001230370004870474CC1001064
:1058300008B50B68B3F5966F00D008BD002211467D
:105840004FF0FF30FEF731FA024B1860024B19603F
:10585000704700BF704800207448002038B5FEF73C
:1058600027F8114BC4184FF0000341EB0305002C3F
:1058700075F1000313DB22462B460C4805F0FCFAB9
:1058800060B100214FF0FF3001F014FA002001F068
:10589000FDFC0028F5D1054805F08EFA38BD4FF023
:1058A000FF346FF00045E6E740420F0068640120D6
:1058B00038B5184B1B681BB3EFF3108272B6D3E8F0
:1058C000CF0F01210028FAD1C3E8401F0028F6D1EC
:1058D000BFF35F8F0F494A6000230F4803700968C8
:1058E000C1E88F3F82F31088002400250B4B187805
:1058F000FDF7D6F840B9002400252046294638BDDA
:105900004FF47A740025F1E7044B1878FDF7F2F8AC
:10591000F3E700BF346401208E6401208D64012010
:1059200008B5024B1878FDF7E5F808BD8D64012035
:1059300070B584B000212D4805F07EFA08BB2C4BD1
:105940001B68E3B1EFF3108272B6D3E8CF0F0121E9
:105950000028FAD1C3E8401F0028F6D1BFF35F8FBB
:1059600023494A602348037883F001030126067027
:1059700008680021C0E88F1F82F31088BBB904B00B
:1059800070BD00214FF0FF3001F094F9002001F0CC
:1059900053FC0446154805F00FFA002CEFD0164BC7
:1059A0001B68002BEBD0154A10689847E7E7FDF716
:1059B00035FD0646FDF77CFF10F57A7441F10005D0
:1059C000002C75F100030BDB0123029300230193EC
:1059D0000B4B009322462B463046FDF78FFDCEE75A
:1059E0004FF0FF346FF00045EEE700BF6864012020
:1059F000346401208E640120704800207448002027
:105A0000B1580010D0B584B04FF050431C68FDF77A
:105A100005FDFDF7CCFDA0422BD12E4B1B7802F0EB
:105A2000E1F82D4B1B6853B30120FDF765FAC0B2B6
:105A30002A4C20702A49FDF781F801212078FDF7D2
:105A40004FF80E20FDF76AF80446E0B10120FCF79C
:105A5000BDFF01462348FDF7ADFA002222490E2082
:105A6000FDF79CF801212148FFF710FE204604B005
:105A7000D0BD1F4B1F4AC1211F48FFF7F3FC16483A
:105A8000FDF756FAD0E7174B00221A605A60FDF76F
:105A9000C5FC0446FDF70CFF10F57A7641F10007CE
:105AA000002E77F100030FDB012302930023019303
:105AB000124B009332463B462046FDF71FFDC44380
:105AC000E40F002CD2D0CDE74FF0FF366FF0004747
:105AD000EAE700BF14D10010686401208D64012042
